:1000000045C0000053C0000051C000004FC00000B8
:100010004DC000004BC0000049C0000047C00000B8
:1000200045C0000043C0000041C000003FC00000C8
:100030003DC000003BC0000039C0000037C00000D8
:1000400035C0000033C0000031C000002FC00000E8
:100050002EC000005EC0000029C0000027C00000C4
:1000600025C0000023C0000021C000001FC0000008
:1000700068C1000098C1000019C0000017C000004E
:1000800015C0000013C0000011C0000011241FBEE5
:10009000CFEFD0E4DEBFCDBF21E0A0E0B1E001C0F2
:1000A0001D92AA3CB207E1F7ACD1D2C1A9CF1F92F1
:1000B0000F920FB60F9211240BB60F922F938F93BE
:1000C0009F93EF93FF938091C0009091C6008C7135
:1000D000E0916701EF5FEF7320916601E21739F05D
:1000E000E0936701F0E0E659FE4F908301C082E0A3
:1000F00090916501892B80936501FF91EF919F910C
:100100008F912F910F900BBE0F900FBE0F901F90ED
:1001100018951F920F920FB60F9211240BB60F92E3
:100120008F939F93EF93FF93909169018091680162
:10013000981769F0E0916801EF5FEF71E093680153
:10014000F0E0E655FE4F80818093C60005C08091A7
:10015000C1008F7D8093C100FF91EF919F918F919E
:100160000F900BBE0F900FBE0F901F90189510921E
:10017000690110926801109267011092660197FF61
:1001800003C022E02093C00090789093C500809334
:10019000C40088E98093C10086E08093C20008957E
:1001A00090916701809166019817A9F0909166017E
:1001B0009F5F9F73E92FF0E0E659FE4F2081809109
:1001C0006501909366011092650190E0982F882751
:1001D000820F911D089580E091E00895909169014A
:1001E0009F5F9F71209168019217E1F3E92FF0E082
:1001F000E655FE4F8083909369018091C100806233
:100200008093C1000895EF92FF920F931F93CF93B5
:10021000DF93FB012081222339F1EB018C018EE772
:10022000DDDF78018881082E000C990B9701201BD7
:10023000310B2817390784F4F70181917F018D373D
:1002400031F08E3739F48DE7C9DF8EE703C08DE7D3
:10025000C5DF8DE7C3DFE6CF8EE7DF91CF911F913A
:100260000F91FF90EF90BACFDF91CF911F910F9137
:10027000FF90EF9008959F92AF92BF92CF92DF923E
:10028000EF92FF920F931F93CF93DF935C017B015B
:1002900087DF811521E0920719F4F701108245C02C
:1002A0008E37910521F08FEFF70180833EC0C12C7E
:1002B000D12CC0E000E010E0DDE78EE7982E70DF83
:1002C0008115F1E09F0721F42FEFC21AD20A27C04F
:1002D0008D37910521F08E37910541F015C0012B26
:1002E000E1F0F501EC0FF11DD08306C0012B41F0C8
:1002F000F501EC0FF11D9082CF5F00E010E00FC020
:10030000C150F701C08311C00115110561F6F50157
:10031000EC0FF11D8083CF5F02C001E010E0F9E92E
:10032000CF16FAE3DF065CF2BECFDF91CF911F91CB
:100330000F91FF90EF90DF90CF90BF90AF909F9084
:1003400008951F920F920FB60F9211240BB60F92C1
:100350002F938F939F93EF93FF938091C800909179
:10036000CE008C71E0910201EF5FEF7320910101EB
:10037000E21739F0E0930201F0E0EB5FFE4F90836B
:1003800001C082E090910001892B80930001FF91D0
:10039000EF919F918F912F910F900BBE0F900FBEF9
:1003A0000F901F9018951F920F920FB60F92112465
:1003B0000BB60F928F939F93EF93FF93909104014D
:1003C00080910301981769F0E0910301EF5FEF71ED
:1003D000E0930301F0E0EB5BFE4F80818093CE0061
:1003E00005C08091C9008F7D8093C900FF91EF9176
:1003F0009F918F910F900BBE0F900FBE0F901F908B
:100400001895CF93DF93CDB7DEB76F970FB6F894FB
:10041000DEBF0FBECDBF8FEF8F8F8E010F5F1F4FDF
:100420008EE1F80111928A95E9F78FE590E09FDE61
:100430007894BE01615E7F4FC8011DDF8F8D8F5F95
:100440008230B8F3BE01615E7F4FC801DCDEF1CFC0
:04045000F894FFCF4E
:00000001FF
