S00E00004D6174436F6D2E73726563D5
S113000045C000000CC200005EC000005CC00000DF
S11300105AC0000058C0000056C0000054C0000080
S113002052C0000050C000004EC000004CC0000090
S1130030A5C3000048C0000046C0000044C0000042
S113004042C0000040C000003EC000003CC00000B0
S1130050EDC000000FC1000036C0000034C0000035
S113006032C0000030C000002EC000002CC00000D0
S11300705DC100008DC1000026C0000024C0000046
S113008022C0000020C000001EC0000011241FBEBA
S1130090CFEFD0E4DEBFCDBF11E0A0E0B1E0E0E1FE
S11300A0F8E000E00BBF02C007900D92A230B10748
S11300B0D9F721E0A2E0B1E001C01D92AB38B2074C
S11300C0E1F794D1A3C39CCFCF93DF931F92CDB715
S11300D0DEB794EA9093BC009091BC0097FD04C0F5
S11300E09091BC009983F8CF9091B900987F99833F
S11300F09091B900987F983039F09091B900987F29
S1130100903111F081E014C08093BB0084E88093A7
S1130110BC008091BC0087FFFCCF8091B900887F30
S113012089838981883119F08981803459F780E085
S11301300F90DF91CF91089524EA34E844E92093A5
S1130140BC009091BC0097FFFCCF9091B900987FC0
S1130150983011F0903199F78093BB003093BC0034
S11301609091BC0097FFFCCF9091B900987F90329A
S113017011F0983539F44093BC009091BC0094FD83
S1130180FCCFDDCF81E0983109F480E008959CCF65
S113019084E98093BC008091BC0084FDFCCF089569
S11301A08093BB0084E88093BC008091BC0087FFEF
S11301B0FCCF9091B900987F81E0983209F480E0F7
S11301C0089584E88093BC008091BC0087FFFCCF35
S11301D08091BB000895CF93DF9300D0CDB7DEB7F5
S11301E04A836983A9DF6981862FDADF4A81842FF4
S11301F0D7DF0F900F90DF91CF91CACF1F93CF938A
S1130200DF931F92CDB7DEB7182F698395DF69811D
S1130210862FC6DF81E0810FBADFD3DF8983B8DFA1
S113022089810F90DF91CF911F9108951F920F92B2
S11302300FB60F9211248F93CF93DF931F92CDB7F4
S1130240DEB78091C6008983898189838981813160
S113025019F481E0809300018981833111F41092B3
S113026000010F90DF91CF918F910F900FBE0F90EF
S11302701F9018951F920F920FB60F9211240BB670
S11302800F928F939F93EF93FF9390916A018091C4
S11302906901981769F0E0916901EF5FEF71E093EC
S11302A06901F0E0E559FE4F80818093C60005C0E6
S11302B08091C1008F7D8093C100FF91EF919F9148
S11302C08F910F900BBE0F900FBE0F901F9018953B
S11302D010926A01109269011092680110926701EC
S11302E097FF03C022E02093C00090789093C5004C
S11302F08093C40088E98093C10086E08093C200A3
S1130300089590916A019F5F9F71209169019217EE
S1130310E1F3E92FF0E0E559FE4F808390936A0101
S11303208091C10080628093C10008951F920F9252
S11303300FB60F9211240BB60F922F938F939F93A6
S1130340EF93FF938091C8009091CE008C71E0915F
S11303500401EF5FEF7320910301E21739F0E0939A
S11303600401F0E0E95FFE4F908301C082E09091C8
S11303700201892B80930201FF91EF919F918F914C
S11303802F910F900BBE0F900FBE0F901F901895DA
S11303901F920F920FB60F9211240BB60F928F93E8
S11303A09F93EF93FF939091060180910501981715
S11303B069F0E0910501EF5FEF71E0930501F0E072
S11303C0E95BFE4F80818093CE0005C08091C90017
S11303D08F7D8093C900FF91EF919F918F910F9032
S11303E00BBE0F900FBE0F901F9018958FE590E0F5
S11303F06FDFB5D1789482E084DF41D083E081DF80
S1130400209A91E085B1892785B92FEF3FE786E1EE
S1130410215030408040E1F700C00000F3CF1F922C
S11304200F920FB60F9211240BB60F922F933F9396
S11304304F935F936F937F938F939F93AF93BF93E8
S1130440EF93FF932CEC8CEC91E021508040904092
S1130450E1F700C081E055DFFF91EF91BF91AF91CB
S11304609F918F917F916F915F914F913F912F91C8
S11304700F900BBE0F900FBE0F901F90189540E089
S113048050E069E170E080ED90E0A5DE40E050E0EE
S11304906AE170E080ED90E09EDE48E150E06BE1BF
S11304A070E080ED90E097DE48E050E06CE170E0B1
S11304B080ED90E090DE40E050E06DE170E080ED92
S11304C090E089DE40E050E06EE170E080ED90E085
S11304D082DE40E050E06FE170E080ED90E07BDE92
S11304E040E050E060E270E080ED90E074DE40E0D7
S11304F050E061E270E080ED90E06DDE40E050E0BD
S113050062E270E080ED90E066DE40E050E063E29D
S113051070E080ED90E05FDE40E050E064E270E087
S113052080ED90E058DE40E050E065E270E080ED60
S113053090E051DE40E050E066E270E080ED90E053
S11305404ADE40E050E067E270E080ED90E043DE98
S113055040E050E068E270E080ED90E03CDE40E096
S113056050E069E270E080ED90E035DE40E050E07C
S11305706AE270E080ED90E02EDE40E050E06BE255
S113058070E080ED90E027DE40E050E06CE270E047
S113059080ED90E020DE40E050E06DE270E080ED20
S11305A090E019DE40E050E06EE270E080ED90E013
S11305B012DE40E050E06FE270E080ED90E00BDE90
S11305C040E050E060E370E080ED90E004DE40E065
S11305D050E061E370E080ED90E0FDDD40E050E04C
S11305E062E370E080ED90E0F6DD40E050E063E32C
S11305F070E080ED90E0EFDD40E050E064E370E017
S113060080ED90E0E8DD40E050E065E370E080EDEF
S113061090E0E1DD40E350E067E370E080ED90E0DE
S1130620DADD41E050E068E370E080ED90E0D3DD96
S113063040E050E063E670E080ED90E0CCDD40E027
S113064050E064E670E080ED90E0C5DD40E050E00D
S113065065E670E080ED90E0BEDD40E050E066E6E7
S113066070E080ED90E0B7DD40E050E067E670E0D8
S113067080ED90E0B0DD40E050E068E670E080EDB1
S113068090E0A9DD40E050E069E670E080ED90E0A4
S1130690A2DD40E050E06AE670E080ED90E09BDD92
S11306A042E050E06BE670E080ED90E094DD40E0E5
S11306B050E06CE670E080ED90E08DDD40E050E0CD
S11306C064E770E080ED90E086CDDF92EF92FF92D8
S11306D00F931F93CF93DF937C018B01EA016BE3AC
S11306E070E080ED90E08ADDD82E6CE370E080ED60
S11306F090E084DD20E030E03D2D822B932BF70148
S1130700918380836DE370E080ED90E077DDF82ED7
S11307106EE370E080ED90E071DD20E030E03F2D8D
S1130720822B932BF801918380836FE370E080ED3B
S113073090E064DD182F60E470E080ED90E05EDD11
S113074020E030E0312F822B932B99838883DF9133
S1130750CF911F910F91FF90EF90DF900895E1E802
S1130760F0E08081856C8083E4E6F0E08081808322
S1130770EFE6F0E080818062808308951F920F92FB
S11307800FB60F9211240BB60F922F933F934F93F2
S11307905F936F937F938F939F93AF93BF93EF93E5
S11307A0FF93CF93DF93CDB7DEB72697DEBFCDBFE0
S11307B086E0A7DDAE014F5F5F4FBE016D5F7F4FE7
S11307C0CE01059682DF2CEC8CEC91E02150804028
S11307D09040E1F700C026960FB6F894DEBF0FBE36
S11307E0CDBFDF91CF91FF91EF91BF91AF919F91D9
S11307F08F917F916F915F914F913F912F910F90C6
S11308000BBE0F900FBE0F901F901895F894FFCF5A
S10508100100E1
S9030000FC
