:100000006DC0000088C0000086C0000084C00000F1
:1000100082C0000080C000007EC000007CC00000E4
:100020007AC0000078C0000076C0000074C00000F4
:100030001FC3000070C000006EC000006CC0000054
:100040006AC0000068C0000066C0000064C0000014
:1000500005C1000027C100005EC000005CC00000B8
:100060005AC0000058C0000056C0000054C0000034
:1000700041C2000071C200004EC000004CC0000030
:100080004AC0000048C0000046C0000023023902F8
:100090003902390239023902390239023902390288
:1000A0003902390239023902390239023902390278
:1000B00039023902390239023902E9012E023902C4
:1000C0000D0239023902F301390239020002390204
:1000D00039023902390239023902180211241FBECD
:1000E000CFEFD0E4DEBFCDBF11E0A0E0B1E0E6E7A6
:1000F000F7E000E00BBF02C007900D92A630B107F9
:10010000D9F721E0A6E0B1E001C01D92A339B20702
:10011000E1F750D22EC374CFCF93DF931F92CDB7A8
:10012000DEB7ECEBF0E094EA9083908199232CF019
:100130009081998390819923DCF7E9EBF0E090813D
:10014000987F99839081987F983029F09091B90099
:10015000987F9031B9F48093BB0084E88093BC0011
:10016000ECEBF0E080818823ECF78091B900887F88
:1001700089838981883141F0998181E0903429F423
:1001800080E003C081E001C080E00F90DF91CF915B
:100190000895CF93DF93ECEBF0E024EAA9EBB0E015
:1001A000CBEBD0E034E844E9208390819923ECF74D
:1001B0009C91987F983011F09031B1F7888330830B
:1001C00090819923ECF79C91987F903211F09835AB
:1001D00029F44083908194FDFDCFE6CF81E09831F2
:1001E00009F480E0DF91CF91089596CF089584E9D6
:1001F0008093BC00ECEBF0E0808184FDFDCF08959E
:100200008093BB0084E88093BC00ECEBF0E080813D
:100210008823ECF79091B900987F81E0983209F437
:1002200080E0089584E88093BC00ECEBF0E08081EE
:100230008823ECF78091BB000895CF93DF93C82FFC
:10024000D62FA7DF8D2FDCDF81E08C0FCEDFEADF3A
:10025000C82FCDDF8C2FDF91CF9108951F920F9281
:100260000FB60F9211248F93CF93DF931F92CDB7C8
:10027000DEB78091C6008983898189838981813134
:1002800019F481E0809300018981833111F4109287
:1002900000010F90DF91CF918F910F900FBE0F90C3
:1002A0001F9018951F920F920FB60F9211240BB644
:1002B0000F928F939F93EF93FF9390916E01809194
:1002C0006D01981769F0E0916D01EF5FEF71E093B8
:1002D0006D01F0E0E159FE4F80818093C60005C0BA
:1002E000E1ECF0E080818F7D8083FF91EF919F9121
:1002F0008F910F900BBE0F900FBE0F901F9018950F
:1003000010926E0110926D0110926C0110926B01AF
:1003100099231CF422E02093C00090789093C500AC
:100320008093C40088E98093C10086E08093C20076
:10033000089520916E012F5F2F7190916D01291703
:10034000E1F3E22FF0E0E159FE4F808320936E014C
:10035000E1ECF0E080818062808308952F923F92EB
:100360004F925F926F927F928F929F92AF92BF92C5
:10037000CF92DF92EF92FF920F931F93CF93DF9371
:100380001F92CDB7DEB7FE01769641905190D20113
:100390000D900020E9F7CD01841995099C012250A8
:1003A000310939015F018EE7C4DF77200CF488C082
:1003B000812C912CD201ED912D018E2F90E0FC012A
:1003C000EC54F109E832F10508F053C0EA5BFF4F45
:1003D000C7C1F501B081B98322E0A20EB11C218012
:1003E0003324339470C0D501BC91B983F5012180C9
:1003F00095012E5F3F4F59016894332431F863C053
:10040000D501BC91B983F501218095012E5F3F4F45
:1004100059016894332432F856C0F501308139838C
:1004200082E0A80EB11C21806894332432F84BC0BE
:10043000F50190819983A2E0AA0EB11C21806894F5
:10044000332431F840C0F501B081B98322E0A20E17
:10045000B11C21806894332433F835C0F501308114
:10046000398382E0A80EB11C21806894332432F8CD
:100470002AC0C32CD12C1C141D04DCF4E980F22CFE
:1004800000E010E0D7018D917D018D3739F08E3776
:1004900051F48DE74EDF8EE74CDF06C08DE749DF74
:1004A0008DE747DF01C045DF0F5F1F4F0C151D05AE
:1004B0004CF3BFEF8B1A9B0A681479040CF07ACFC7
:1004C0008EE737DF03C0C32CD12CD8CF0F90DF913C
:1004D000CF911F910F91FF90EF90DF90CF90BF9041
:1004E000AF909F908F907F906F905F904F903F90D4
:1004F0002F9008951F920F920FB60F9211240BB6F2
:100500000F922F938F939F93EF93FF938091C80047
:100510002091CE008C71E0910801EF5FEF73909114
:100520000701E91739F0E0930801F0E0E55FFE4FBD
:10053000208301C082E090910601892B80930601FF
:10054000FF91EF919F918F912F910F900BBE0F9084
:100550000FBE0F901F9018951F920F920FB60F921B
:1005600011240BB60F928F939F93EF93FF9390916B
:100570000A0180910901981769F0E0910901EF5F84
:10058000EF71E0930901F0E0E55BFE4F808180931D
:10059000CE0005C0E9ECF0E080818F7D8083FF9183
:1005A000EF919F918F910F900BBE0F900FBE0F9008
:1005B0001F9018958FE590E0A3DE78944BD0FFCF85
:1005C000DF92EF92FF920F931F93CF93DF937C0103
:1005D0008B01EA016BE370E080ED90E02EDED82E17
:1005E0006CE370E080ED90E028DE20E030E03D2D0F
:1005F000822B932BF701918380836DE370E080ED74
:1006000090E01BDEF82E6EE370E080ED90E015DEEA
:1006100020E030E03F2D822B932BF80191838083E3
:100620006FE370E080ED90E008DE182F60E470E08A
:1006300080ED90E002DE20E030E0312F822B932B22
:1006400099838883DF91CF911F910F91FF90EF9055
:10065000DF900895E1E8F0E08081856C8083089563
:100660002FB7F89480918400909185002FBF089552
:100670001F920F920FB60F9211240BB60F92CF92CA
:10068000DF92EF92FF920F931F932F933F934F931D
:100690005F936F937F938F939F93AF93BF93EF93EA
:1006A000FF93CF93DF93CDB7DEB72897DEBFCDBFE3
:1006B0008FB7F89420918600309187003093920193
:1006C000209391018FBF809191019091920180912F
:1006D0008F01909190017E0185E0E80EF11C8E0162
:1006E0000D5F1F4FA701B801CE0101966C0168DFB5
:1006F000B7DF98878F83FF92EF921F930F93DF925C
:10070000CF92CE0107969F938F9381E091E09F93C4
:100710008F9324DE0FB6F894DEBF0FBECDBF2896B0
:100720000FB6F894DEBF0FBECDBFDF91CF91FF9122
:10073000EF91BF91AF919F918F917F916F915F9159
:100740004F913F912F911F910F91FF90EF90DF906C
:10075000CF900F900BBE0F900FBE0F901F9018956B
:10076000EE0FFF1F0024001C0BBE0790F691E02D3A
:060770000994F894FFCF8C
:06077600016969696900D8
:00000001FF
