S00E00004D6174436F6D2E73726563D5
S113000045C0000060C000005EC000005CC000008D
S11300105AC0000058C0000056C0000054C0000080
S113002052C0000050C000004EC000004CC0000090
S11300304AC0000048C0000046C0000044C00000A0
S113004042C0000040C000003EC000003CC00000B0
S11300503BC000006BC0000036C0000034C000008C
S113006032C0000030C000002EC000002CC00000D0
S113007070C10000A0C1000026C0000024C0000020
S113008022C0000020C000001EC0000011241FBEBA
S1130090CFEFD0E4DEBFCDBF11E0A0E0B1E0E0E8F7
S11300A0F4E000E00BBF02C007900D92A430B1074A
S11300B0D9F721E0A4E0B1E001C01D92AE3CB20743
S11300C0E1F7A7D1DBC19CCF1F920F920FB60F921D
S11300D011240BB60F922F938F939F93EF93FF935B
S11300E08091C0002091C6008C71E0916B01EF5F9C
S11300F0EF7390916A01E91739F0E0936B01F0E036
S1130100E259FE4F208301C082E090916901892B5E
S113011080936901FF91EF919F918F912F910F909F
S11301200BBE0F900FBE0F901F9018951F920F9249
S11301300FB60F9211240BB60F928F939F93EF93E8
S1130140FF9390916D0180916C01981769F0E09193
S11301506C01EF5FEF71E0936C01F0E0E255FE4F4C
S113016080818093C60005C0E1ECF0E080818F7D42
S11301708083FF91EF919F918F910F900BBE0F9011
S11301800FBE0F901F90189510926D0110926C0184
S113019010926B0110926A0199231CF422E02093BF
S11301A0C00090789093C5008093C40088E9809340
S11301B0C10086E08093C200089520916D012F5FF5
S11301C02F7190916C012917E1F3E22FF0E0E255D1
S11301D0FE4F808320936D01E1ECF0E0808180622A
S11301E0808308952F923F924F925F926F927F92F5
S11301F08F929F92AF92BF92CF92DF92EF92FF9233
S11302000F931F93CF93DF931F92CDB7DEB7FE01F9
S1130210769641905190D2010D900020E9F7CD01DE
S1130220841995099C012250310939015F018EE737
S1130230C4DF77200CF473C0812C912CF2018191DE
S11302402F01863679F128F4833641F08436A9F1FA
S11302503FC0893669F08C36C1F03AC0F50120817F
S1130260298332E0A30EB11C2180332433945AC075
S1130270F501F081F983F501218095012E5F3F4F4F
S113028059016894332431F84DC0F501F081F983A4
S1130290F501218095012E5F3F4F59016894332465
S11302A032F840C0F5013081398382E0A80EB11CD8
S11302B021806894332432F835C0F5019081998304
S11302C022E0A20EB11C21806894332432F82AC0A3
S11302D0C32CD12C1C141D04DCF4E980F22C00E0A6
S11302E010E0F70181917F018D3739F08E3751F499
S11302F08DE763DF8EE761DF06C08DE75EDF8DE7A4
S11303005CDF01C05ADF0F5F1F4F0C151D054CF356
S1130310FFEF8F1A9F0A681479040CF08FCF8EE7D1
S11303204CDF03C0C32CD12CD8CF0F90DF91CF91D9
S11303301F910F91FF90EF90DF90CF90BF90AF90FF
S11303409F908F907F906F905F904F903F902F90F1
S113035008951F920F920FB60F9211240BB60F92AD
S11303602F938F939F93EF93FF938091C8002091D5
S1130370CE008C71E0910601EF5FEF73909105015F
S1130380E91739F0E0930601F0E0E75FFE4F2083C0
S113039001C082E090910401892B80930401FF91B4
S11303A0EF919F918F912F910F900BBE0F900FBEE5
S11303B00F901F9018951F920F920FB60F92112451
S11303C00BB60F928F939F93EF93FF939091080135
S11303D080910701981769F0E0910701EF5FEF71D1
S11303E0E0930701F0E0E75BFE4F80818093CE004D
S11303F005C0E9ECF0E080818F7D8083FF91EF916F
S11304009F918F910F900BBE0F900FBE0F901F9076
S11304101895CF93DF9300D000D01F92CDB7DEB7ED
S113042080E489838AED9FE0A9E4B0E48A839B8316
S1130430AC83BD838FE590E0A7DE78947E0122E053
S1130440E20EF11CCE0101966C0100E011E0FF9276
S1130450EF92DF92CF921F930F93C4DE9FEF2FE7AB
S113046086E1915020408040E1F700C000000F90E9
S11304700F900F900F900F900F90E9CFF894FFCF4B
S107048063660000AB
S9030000FC
