:1000000045C0000053C0000051C000004FC00000B8
:100010004DC000004BC0000049C0000047C00000B8
:1000200045C0000043C0000041C000003FC00000C8
:100030003DC000003BC0000039C0000037C00000D8
:1000400035C0000033C0000031C000002FC00000E8
:100050002EC000005EC0000029C0000027C00000C4
:1000600025C0000023C0000021C000001FC0000008
:1000700085C10000B5C1000019C0000017C0000014
:1000800015C0000013C0000011C0000011241FBEE5
:10009000CFEFD0E4DEBFCDBF21E0A0E0B1E001C0F2
:1000A0001D92AA3CB207E1F7C9D1F0C1A9CF1F92B6
:1000B0000F920FB60F9211240BB60F922F938F93BE
:1000C0009F93EF93FF938091C0002091C6008C71A5
:1000D000E0916701EF5FEF7390916601E91739F0E6
:1000E000E0936701F0E0E659FE4F208301C082E013
:1000F00090916501892B80936501FF91EF919F910C
:100100008F912F910F900BBE0F900FBE0F901F90ED
:1001100018951F920F920FB60F9211240BB60F92E3
:100120008F939F93EF93FF93909169018091680162
:10013000981769F0E0916801EF5FEF71E093680153
:10014000F0E0E655FE4F80818093C60005C0E1ECEB
:10015000F0E080818F7D8083FF91EF919F918F915F
:100160000F900BBE0F900FBE0F901F90189510921E
:10017000690110926801109267011092660199233B
:100180001CF422E02093C00090789093C5008093E7
:10019000C40088E98093C10086E08093C20008957E
:1001A00090916701809166019817A9F0909166017E
:1001B0009F5F9F73E92FF0E0E659FE4F2081809109
:1001C0006501909366011092650190E0982F882751
:1001D000820F911D089580E091E0089520916901BA
:1001E0002F5F2F71909168012917E1F3E22FF0E062
:1001F000E655FE4F808320936901E1ECF0E08081B9
:10020000806280830895EF92FF920F931F93CF93A4
:10021000DF93FB012081222351F17B01C92FD82FCD
:100220008EE7DCDFF70180811816FCF40D2F1C2F00
:10023000C0E0D0E0F80181918F018D3739F08E3721
:1002400051F48DE7CBDF8EE7C9DF06C08DE7C6DF4F
:100250008DE7C4DF01C0C2DF2196F7018081082E3F
:10026000000C990BC817D9072CF38EE7B7DFDF9185
:10027000CF911F910F91FF90EF9008955F926F9231
:100280007F928F929F92AF92BF92CF92DF92EF9226
:10029000FF920F931F93CF93DF937C016B0180DF5D
:1002A000811521E0920719F4F601108257C08E37AC
:1002B000910521F08FEFF601808350C000E010E03F
:1002C000B12CC0E0D0E055245394612C0F2EFDE7F3
:1002D0007F2EF02D912CA12C0F2EFEE78F2EF02DCE
:1002E0005FDF282F392F2115F1E03F0719F40F5F49
:1002F0001F4F2DC02D37310521F02E37310559F014
:1003000018C0CD2B11F1F701EB0DF11D7082B394E4
:10031000C92DDA2D1CC0CD2B41F0F701EB0DF11DDD
:100320008082B394C92DDA2D12C0BA94F601B0823E
:1003300015C0209721F08FEFF60180830FC0F701E1
:10034000EB0DF11D8083B39402C0C52DD62D093964
:100350008AE318072CF28FEFF6018083DF91CF91AB
:100360001F910F91FF90EF90DF90CF90BF90AF90D3
:100370009F908F907F906F905F9008951F920F9243
:100380000FB60F9211240BB60F922F938F939F935A
:10039000EF93FF938091C8002091CE008C71E09183
:1003A0000201EF5FEF7390910101E91739F0E093DB
:1003B0000201F0E0EB5FFE4F208301C082E09091EC
:1003C0000001892B80930001FF91EF919F918F9104
:1003D0002F910F900BBE0F900FBE0F901F9018958E
:1003E0001F920F920FB60F9211240BB60F928F939C
:1003F0009F93EF93FF9390910401809103019817CD
:1004000069F0E0910301EF5FEF71E0930301F0E029
:10041000EB5BFE4F80818093CE0005C0E9ECF0E0FD
:1004200080818F7D8083FF91EF919F918F910F90BD
:100430000BBE0F900FBE0F901F901895CF93DF93B8
:10044000CDB7DEB76F970FB6F894DEBF0FBECDBF46
:100450008FEF8983FE0132968EE1DF011D928A952E
:10046000E9F78FE590E083DE7894BE016F5F7F4F00
:10047000CE01029603DF89818F5F8230B0F3BE0127
:100480006F5F7F4FCE010296BEDEEFCFF894FFCFB5
:00000001FF
