S00E00004D6174436F6D2E73726563D5
S113000029C0000037C0000035C0000033C0000024
S113001031C000002FC000002DC000002BC0000024
S113002029C0000027C0000025C0000023C0000034
S113003021C0000020C000004AC000001BC0000016
S113004019C0000017C0000015C0000013C0000054
S113005011C0000011241FBECFE5D8E0DEBFCDBF24
S113006020E0A0E6B0E001C01D92A53CB207E1F794
S113007051D178C1C5CF1F920F920FB60F921124A0
S11300802F938F939F93EF93FF938BB12CB1887130
S1130090E0916200EF5FEF7390916100E91739F02E
S11300A0E0936200F0E0EB59FF4F208301C082E04F
S11300B090916000892B80936000FF91EF919F9154
S11300C08F912F910F900FBE0F901F9018951F9234
S11300D00F920FB60F9211248F939F93EF93FF9378
S11300E09091640080916300981761F0E09163003F
S11300F0EF5FEF71E0936300F0E0EB55FF4F808119
S11301008CB901C05598FF91EF919F918F910F90F9
S11301100FBE0F901F901895109264001092630008
S11301201092620010926100992314F422E02BB91A
S1130130907890BD89B988E98AB986E880BD089528
S113014090916200809161009817A9F090916100EC
S11301509F5F9F73E92FF0E0EB59FF4F208180915F
S11301606000909361001092600090E0982F8827BF
S1130170820F911D089580E091E00895209164001C
S11301802F5F2F71909163002917E1F3E22FF0E0C4
S1130190EB55FF4F808320936400559A0895EF92A6
S11301A0FF920F931F93CF93DF93FB0120812223B0
S11301B051F17B01C92FD82F8EE7E0DFF701808151
S11301C01816FCF40D2F1C2FC0E0D0E0F80181912B
S11301D08F018D3739F08E3751F48DE7CFDF8EE7FD
S11301E0CDDF06C08DE7CADF8DE7C8DF01C0C6DFFB
S11301F02196F7018081082E000C990BC817D907A6
S11302002CF38EE7BBDFDF91CF911F910F91FF900D
S1130210EF9008955F926F927F928F929F92AF9228
S1130220BF92CF92DF92EF92FF920F931F93CF93DF
S1130230DF937C016B0184DF811521E0920719F4BF
S1130240F601108257C08E37910521F08FEFF60129
S1130250808350C000E010E0B12CC0E0D0E0552411
S11302605394612C0F2EFDE77F2EF02D912CA12CA1
S11302700F2EFEE78F2EF02D63DF282F392F211547
S1130280F1E03F0719F40F5F1F4F2DC02D373105E3
S113029021F02E37310559F018C0CD2B11F1F7019B
S11302A0EB0DF11D7082B394C92DDA2D1CC0CD2B3A
S11302B041F0F701EB0DF11D8082B394C92DDA2DC5
S11302C012C0BA94F601B08215C0209721F08FEFC6
S11302D0F60180830FC0F701EB0DF11D8083B39409
S11302E002C0C52DD62D09398AE318072CF28FEFE9
S11302F0F6018083DF91CF911F910F91FF90EF90D2
S1130300DF90CF90BF90AF909F908F907F906F9031
S11303105F900895CF93DF93CDB7DEB76F970FB695
S1130320F894DEBF0FBECDBF8FEF8983FE013296F6
S11303308EE1DF011D928A95E9F78FE590E0ECDE0E
S11303407894BE016F5F7F4FCE01029663DF89818F
S11303508F5F8230B0F3BE016F5F7F4FCE01029694
S10B03601EDFEFCFF894FFCF7C
S9030000FC
